:1000000009C021C020C01FC01EC01DC01CC01BC015
:100010001AC019C011241FBECFE9CDBF10E0A0E661
:10002000B0E0E6E7F2E002C005900D92A037B1071C
:10003000D9F710E0A0E7B0E001C01D92A237B107E8
:10004000E1F7FFD016C1DCCF82E390E0089588B3DA
:100050008F6188BB8091700040E0A1E0B0E023C0D8
:10006000832F90E063E070E0F2D0FC01E05AFF4F94
:100070008081481798F028B3832F90E063E070E008
:10008000E6D0FC01E05AFF4FCD01028002C0880F8C
:10009000991F0A94E2F78095822388BB3F5F353031
:1000A000F9F64F5F85E04F3F11F030E0F8CF8093D5
:1000B000700040937100C098089530E042E3B7C0EB
:1000C000832F90E063E070E0C2D0FC01E05AFF4F64
:1000D0002081222309F441C0283C09F07CC0832FF1
:1000E00090E063E070E0B3D0FC01E05AFF4F218163
:1000F0002150832F90E063E070E0A9D0FC01E05A2A
:10010000FF4F2183222309F091C0832F90E063E009
:1001100070E09DD0DC01A05ABF4F832F90E063E0D8
:1001200070E095D0FC01E05AFF4F808181508C93A4
:10013000832F90E063E070E08AD0DC01A05ABF4FCB
:10014000832F90E063E070E082D0FC01E05AFF4F23
:1001500082818F7712968C9369C0832F90E063E041
:1001600070E075D0FC01E05AFF4F21812150832FB0
:1001700090E063E070E06BD0FC01E05AFF4F218318
:10018000222309F053C0832F90E063E070E05FD03A
:10019000DC01A05ABF4F832F90E063E070E057D09E
:1001A000FC01E05AFF4F80818F5F8C93832F90E09A
:1001B00063E070E04CD0DC01A05ABF4F832F90E089
:1001C00063E070E044D0FC01E05AFF4F8281806818
:1001D00012968C9322C0832F90E063E070E037D0BA
:1001E000FC01E05AFF4F828187FF0BC0832F90E014
:1001F00063E070E02CD0FC01E05AFF4F2F5F2083BA
:1002000015C02150832F90E063E070E020D0FC0106
:10021000E05AFF4F2083222349F4832F90E063E0CC
:1002200070E015D0FC01E05AFF4F41833F5F35304D
:1002300008F446CF30937100089587B38F6187BB70
:10024000089587B38F6187BB38DF01DFFDCF552766
:10025000002480FF02C0060E571F660F771F61152E
:10026000710521F096958795009799F7952F802D28
:060270000895F894FFCF91
:1002760000B400C80A010AC8020ADC03C800040068
:00000001FF
