:1000000009C021C020C01FC01EC01DC01CC01BC015
:100010001AC019C011241FBECFE9CDBF10E0A0E661
:10002000B0E0E8E9F3E002C005900D92A037B10717
:10003000D9F710E0A0E7B0E001C01D92A938B107E0
:10004000E1F78BD0A7C1DCCFAC0170E0FC01EE0F73
:10005000FF1FE059FF4F808191818617970764F455
:1000600028B381E090E002C0880F991F4A95E2F71B
:100070008095822388BB089528B381E090E002C078
:10008000880F991F4A95E2F7282B28BB0895EF9215
:10009000FF920F931F93CF93DF9381E080938800AB
:1000A00032E0E32EF12C03E010E0C1E0D0E049C0E3
:1000B000F0E0EE0FFF1FDF01A458BF4F8D919C9120
:1000C000119781309105E9F0823091051CF4892B5C
:1000D00041F032C08230910509F18F3F910561F501
:1000E00020C0BED060507047804090402CF1E0911D
:1000F0008800F0E0EE0FFF1FE458FF4FD183C0836C
:100100001BC0E059FF4F80819181019691838083CC
:100110008F3F910589F4ED92FC920EC00D931C93D4
:100120000BC0E059FF4F80819181019791838083BB
:10013000892B11F41D921C92809188008F5F80930F
:100140008800E0918800E53008F4B2CFDF91CF91CC
:100150001F910F91FF90EF9008951F93CF93DF931E
:10016000B89AB99ABA9ABB9ABC9A10E0C1E0D0E0AA
:10017000E2E7F0E041E050E0612F70E080819181A2
:100180008617970764F428B3CE01042E02C0880FA7
:10019000991F0A94E2F78095822388BB0AC028B38E
:1001A000CE01042E02C0880F991F0A94E2F7282B73
:1001B00028BB32964F5F5F4F45305105F9F611234A
:1001C00009F465DF1F5FD4CFA0E0B0E0E9EEF0E016
:1001D00090C0EC01A880B980CA80DB80A114B10472
:1001E000C104D10441F484E2A82E89EDB82E8BE538
:1001F000C82E87E0D82EC601B5012DE133EF41E0CE
:1002000050E054D027EA31E440E050E036D07B01A2
:100210008C01C601B5012DE133EF41E050E046D03D
:10022000CA01B9012CEE34EF4FEF5FEF26D06E0D0F
:100230007F1D801F911F97FF04C061507040804058
:100240009048688379838A839B839B01AC015F77A5
:10025000B901CA01CDB7DEB7EAE067C0B5DF0895DE
:100260008CE690E0B1DF089560936C0070936D00B0
:1002700080936E0090936F000895FF27EE27BB27B1
:10028000AA2760FF04C0A20FB31FE41FF51F220FAF
:10029000331F441F551F969587957795679589F766
:1002A0000097760771F7CF01BD01089597FB092EDE
:1002B00005260ED057FD04D04BD00AD0001C38F4D0
:1002C00050954095309521953F4F4F4F5F4F089582
:1002D000F6F790958095709561957F4F8F4F9F4F62
:1002E00008952F923F924F925F926F927F928F92DA
:1002F0009F92AF92BF92CF92DF92EF92FF920F93B5
:100300001F93CF93DF93CDB7DEB7CA1BDB0B0FB6BE
:10031000F894DEBF0FBECDBF09942A88398848887B
:100320005F846E847D848C849B84AA84B984C88411
:10033000DF80EE80FD800C811B81AA81B981CE0F08
:10034000D11D0FB6F894DEBF0FBECDBFED010895ED
:10035000A1E21A2EAA1BBB1BFD010DC0AA1FBB1FC9
:10036000EE1FFF1FA217B307E407F50720F0A21B3B
:10037000B30BE40BF50B661F771F881F991F1A94A8
:1003800069F760957095809590959B01AC01BD01D2
:08039000CF010895F894FFCF9E
:100398000000010002000300040005000100000045
:00000001FF
