:1000000012C021C020C01FC01EC01DC01CC01BC00C
:100010001AC019C018C017C016C015C014C013C02C
:1000200012C011C010C011241FBECFE5D4E0DEBF46
:10003000CDBF10E0A0E6B0E001C01D92A136B1072F
:10004000E1F71AD03DC0DCCF369A349BFECF85B1A4
:10005000089585B5886485BD85B5806285BD85B503
:10006000826085BD13BC089580E886B986B183603F
:1000700086B93E9A3D9A089587B38C6087BBA09855
:1000800085B5886485BD85B5806285BD85B582608E
:1000900085BD13BC80E886B986B1836086B93E9A77
:1000A0003D9A24EC39E0369A349BFECF85B1C901E4
:1000B0000197F1F7369A349BFECF85B183BDF3CF1C
:0400C000F894FFCFE2
:00000001FF
